:100000000C942A000C9454000C9454000C9454004A
:100010000C9454000C9454000C9454000C94540010
:100020000C9454000C9454000C9454000C94540000
:100030000C9454000C9454000C9454000C945400F0
:100040000C9454000C9454000C9454000C945400E0
:100050000C94540011241FBECFE5D4E0DEBFCDBF09
:0C0060000E9436000C943400F894FFCF8E
:10006C00D098D89AA09AA89881B38F6081BB12BA05
:10007C0080E021E0C89903C095B3922795BB82BB61
:10008C00893009F480E08F5F3FEF44E39CE031500E
:0C009C0040409040E1F700C00000ECCFB5
:0400A8000C940000B4
:00000001FF
