:0C0000000C942A000C9400000C940000EA
:10000C000C9400000C9400000C9400000C94000064
:10001C000C9400000C9400000C9400000C94000054
:10002C000C9400000C9400000C9400000C94000044
:10003C000C9400000C9400000C9400000C94000034
:10004C000C9400000C940000F894EE27ECBBF1E04B
:10005C00FBBFEBBFE5BF8DE0A2E0BB27ED938A951C
:10006C00E9F780E094E0A0E6ED930197E9F7EFE57E
:10007C00EDBFE4E0EEBFC0E6D1E00C944500EFEF3D
:10008C00E4BBE3E0E1BBE0E0E7B9E6E8E6B9A0E019
:10009C0014D0A1E012D0FBCFFFCF1A931A2FE7B1E7
:1000AC00E07EE12BE7B98BE18A95F1F7369A369928
:1000BC00FECFE4B1F5B119910895EFDF8F0105BBC7
:1000CC00E12FF070E2BBA8EEB3E000C0109639F05F
:1000DC00A89580ED97E00197F1F71197C9F708956E
:00000001FF
