:0C0000000C942F000C9400000C940000E5
:10000C000C9400000C9400000C9400000C94000064
:10001C000C9400000C9400000C9400000C94000054
:10002C000C9400000C9400000C9400000C94000044
:10003C000C9400000C9400000C9400000C94000034
:10004C000C9400000C9400003F065B4F666DFD871E
:10005C007F6FF894EE27ECBBF1E0FBBFEBBFE5BF85
:10006C008DE0A2E0BB27ED938A95E9F780E094E060
:10007C00A0E6ED930197E9F7EFE5EDBFE4E0EEBF05
:10008C00C0E6D1E00C944A002A978AE060E070E068
:10009C00E4E5F0E017D0E0E0EBBBEFEFEABB00E00B
:1000AC0010E00A30E0E01E075CF4DE01A00FB11F87
:1000BC00EC91EBBBA4E6B0E011D00F5F1F4FF1CF7A
:1000CC00EECFFFCFAF93BF93DB01AC0FBD1F0590FD
:1000DC000D928A95E1F7BF91AF910895109639F082
:1000EC00A89580ED97E00197F1F71197C9F708955E
:00000001FF
