:100000000C9442000C9400000C9400000C9400002E
:100010000C9400000C9400000C9400000C94000060
:100020000C9400000C9400000C9400000C94000050
:100030000C9400000C9400000C9400000C94000040
:100040000C9400000C9400000C9400000C94000030
:100050000C9400001027E80364000A00010000105F
:1000600000011000010048656C6C6F20576F726CC6
:100070006400352A363D3330000080C00200600144
:100080007A000000F894EE27ECBBF1E0FBBFEBBF79
:10009000E5BF8DE0A2E0BB27ED938A95E9F780E00C
:1000A00094E0A0E6ED930197E9F7ECE7F0E08591A5
:1000B0009591009761F0A591B59105901590BF01BC
:1000C000F00105900D920197E1F7FB01F0CFEFE50C
:1000D000EDBFE4E0EEBFC0E6D1E00C946F00A0E11C
:1000E00071D0E0E0EA93A0E02FD0A6E6B0E095D092
:1000F0003DD0E8E0EA93A1E027D0A2E7B0E08DD0C0
:10010000F0CFFFCF1A931A2FEBB3EF70AE2FE12F82
:10011000E07FEA2BEBBB8DE08A95F1F7DA9A8DE070
:100120008A95F1F7DA988DE08A95F1F774C0AA9371
:10013000A881E8DFE881E295E883A881E3DF85E82C
:100140008A95F1F7219608951A930A931A2F0A8136
:10015000E12FF0E0E05AFE4FE081E00FAE2FE7DF45
:10016000502E412E1981088123960895A2E059D07E
:10017000ACE0DDDFA1E055D0E0E04E2E5E2E08952C
:100180001A931A2F1A3011F0571438F0E0E0EA935E
:100190004394A42DD9DF1A30F1F15394D89AA12FAA
:1001A000C6DFD89838C048D09D01F9012F5F3F4F76
:1001B000E4911E2FE03019F0A12FE2DFF6CF41D0FD
:1001C000249608951A931A2FEAB3E06FEABBD29AE5
:1001D000D09AD19ADA98D898D998712EE12FE05810
:1001E000E0936201E12FE054E0936301A4E1B0E009
:1001F0002DD01BD01AD019D0A0E284DF88EC90E07B
:100200000197F1F7A8E293DFA4E091DFA5E88FDF83
:10021000A6E08DDFABDF19910895C5DFA4E6B0E05D
:1002200015C085DFA3E0B0E011C0A0E36BDF88EC70
:1002300090E00197F1F708953A932A931A930A935D
:1002400008953B812A81198108810895109639F01B
:10025000A89580ED97E00197F1F71197C9F70895F8
:00000001FF
