:100000000C942A000C946C000C946C000C946C0002
:100010000C946C000C946C000C946C000C946C00B0
:100020000C946C000C946C000C946C000C946C00A0
:100030000C946C000C946C000C946C000C946C0090
:100040000C946C000C946C000C946C000C946C0080
:100050000C946C0011241FBECFE5D4E0DEBFCDBFF1
:0C0060000E9436000C943400F894FFCF8E
:10006C001ABA8FEF8BBB8FE784BB15BAF9E1EFEFB0
:10007C0074E269E750E440E332E022E198E789B3A7
:10008C008F3ED1F038F48F3BD9F08F3DB9F08F37DC
:10009C00D9F418C08B3F61F018F4873F59F014C0A5
:1000AC008D3F21F08E3F81F455BBE9CF65BBE7CF87
:1000BC0075BBE5CF45BBE3CFF5BBE1CF25BBDFCFB0
:0C00CC0035BBDDCF95BBDBCFE5BBD9CF4A
:0400D8000C94000084
:00000001FF
