:0A0000000C9445000C9400000C94D1
:10000A0000000C9400000C9400000C9400000C9466
:10001A0000000C9400000C9400000C9400000C9456
:10002A0000000C9400000C9400000C9400000C9446
:10003A0000000C9400000C9400000C9400000C9436
:10004A0000000C9400000C9400001027E8036400E0
:10005A000A00010000100001100001004144432081
:10006A00434830203D202575004144432043483110
:10007A00203D2025750080C002006001800000003C
:10008A00F894EE27ECBBF1E0FBBFEBBFE5BF8DE0D8
:10009A00A2E0BB27ED938A95E9F780E094E0A0E619
:1000AA00ED930197E9F7E2E8F0E0859195910097E1
:1000BA0061F0A591B59105901590BF01F0010590E9
:1000CA000D920197E1F7FB01F0CFEFE5EDBFE4E018
:1000DA00EEBFC0E6D1E00C947200A0E177D0E0E078
:1000EA00E7B9E6E8E6B9A0E011D08F0152D0E6E61A
:1000FA00F0E00DD2A1E00AD08F01E0E0EA93A1E09E
:10010A0036D0E3E7F0E003D2EECFFFCF1A931A2FEF
:10011A00E7B1E07EE12BE7B98BE18A95F1F7369AF0
:10012A003699FECFE4B1F5B17AC01A931A2FE5B326
:10013A00EF70AE2FE12FE07FEA2BE5BB8DE08A95C9
:10014A00F1F7AA9A8DE08A95F1F7AA988DE08A9537
:10015A00F1F765C0AA93A881E8DFE881E295E88310
:10016A00A881E3DF85E88A95F1F7219608951A9325
:10017A000A931A2F0A81E12FF0E0E05AFE4FE0813C
:10018A00E00FAE2FE7DF502E412E1981088123960A
:10019A000895A2E0C8D1ACE0DDDFA1E0C4D1E0E07F
:1001AA004E2E5E2E08951A931A2F1A3011F05714F4
:1001BA0038F0E0E0EA934394A42DD9DF1A3079F1BC
:1001CA005394A89AA12FC6DFA89829C01A931A2F68
:1001DA00E4B3E06FE4BBA29AA09AA19AAA98A8985D
:1001EA00A998712EE12FE058E0936201E12FE054C3
:1001FA00E0936301A4E1B0E0D9D199D198D197D124
:10020A00A0E293DF88EC90E00197F1F7A8E2A2DF81
:10021A00A4E0A0DFA5E89EDFA6E09CDFBADF199183
:10022A000895BA93AA932697A6D110E0AC85BD8506
:10023A00E0E0F0E0ED93FC93EA89FB893196EA8BE2
:10024A00FB8B3197E4912E2FE03009F40BC1E12F9B
:10025A00E03031F4253211F411E001C06FD101C14F
:10026A00E130A1F4253211F469D1FAC012E040E07C
:10027A0000E02D3211F401E0F4C02B3211F44BE20C
:10028A00F0C0203211F440E2ECC002C0E23039F48E
:10029A0050E013E0203311F40068E3C003C0E330F8
:1002AA0009F0DFC0203310F02A3308F007C0AAE0B3
:1002BA005A9F502DE22FE0535E0FD3C0E22FE33650
:1002CA0039F443D1E889F989A481AA9344D1C8C0F1
:1002DA00E33729F43AD145D101D11E2F07C0E037BF
:1002EA0049F433D13ED106D11E2F086002600F7740
:1002FA0030E03AC0E43611F0E93611F4046002C085
:10030A00E53731F4E4E5F0E0EE83FF8315E00CC055
:10031A00E83511F4086003C0E83709F0A1C0EEE53A
:10032A00F0E0EE83FF8314E002FF15C00ED1A88926
:10033A00B9891496ED91FD91EA87FB87AB85AA23CB
:10034A0022F427D1EA87FB874DE2403011F01F5F84
:10035A0001C00B7F09C0F9D0A889B9891496ED911B
:10036A00FC911197EA87FB8700FD10C0151770F4FE
:10037A0007FF08C002FF04C00B7F242F115001C0E1
:10038A0020E301C020E2DAD05150F0CF312F01FF33
:10039A0016C0303099F003FF06C0EE81FF81259127
:1003AA00EE83FF8305C0AE81BF812D91AE83BF83EB
:1003BA00C5D0503009F051503150EBCF48C020E33E
:1003CA00EE81FF81EAD0E887F987EE81FF813296D4
:1003DA00EE83FF83E885F985AA85BB85AE17BF073B
:1003EA0050F02F5FA885B985EA85FB85EA1BFB0BD0
:1003FA00EA87FB87EFCF2A3328F003FF02C0295F81
:10040A0001C0295D04FD19C0213320F4A885B985EE
:10041A00119709F409C0531710F000FF01C011C069
:10042A0020E207FF0AC020E3006102FF06C00B7F3B
:10043A004A9391D0503009F0515080D0503009F091
:10044A0051503150A885B985129708F0B8CF00FFEE
:10045A0007C0503029F05150E0E2EA937CD0F9CF3E
:10046A0010E0EACEAC85BD85ED91FD918BD0649606
:10047A00089583D08D013C81A32F95DED801ED919B
:10048A00FD913196FE93EE937FD025960895FF92C3
:10049A00F82E26971A930A93DE0114960024AF0DBC
:1004AA00B01D8D01E0E0EC83ED83EE83EF83DE0186
:1004BA0018960024AF0DB01DED91FD91FA93EA93C1
:1004CA001A930A93EEE3F2E0FA93EA93DE0118969E
:1004DA00A8DE198108812896FF900895BA93AA93F5
:1004EA00A991B991EE27FF276D91662311F03196F4
:1004FA00FBCF0895BA93AA93AA27BB27E991F9914A
:10050A000590002011F01196FBCFFD010895FA9392
:10051A00EA93F8016627772744D084E0B8DF269665
:10052A00A8EEB3E043C016DEA3E0B0E03FC0A0E30C
:10053A00FCDD88EC90E00197F1F708952A93AD85E8
:10054A00BE85EF85F88909950895E889F989349770
:10055A00E88BF98B0895AD85BE85EF85F8890995F5
:10056A000895A889B9891496ED91FD91EE83FF83C8
:10057A00AE81BF8108955A934A933A932A931A9364
:10058A000A9308955D814C813B812A8119810881F2
:10059A000895F195E195F04008950590F491E02DC4
:1005AA0008957A936A93FA93EA930895109639F024
:1005BA00A89580ED97E00197F1F71197C9F708958B
:00000001FF
