:100000000C942A000C9453000C9453000C9453004D
:100010000C9453000C9453000C9453000C94530014
:100020000C9453000C9453000C9453000C94530004
:100030000C9453000C9453000C9453000C945300F4
:100040000C9453000C9453000C9453000C945300E4
:100050000C94530011241FBECFE5D4E0DEBFCDBF0A
:0C0060000E9436000C943400F894FFCF8E
:10006C00D798DF9ABC9AC498CF9915C0C49A2FEF31
:10007C0084E39CE0215080409040E1F700C00000F8
:10008C00C4982FEF84E39CE0215080409040E1F72E
:0A009C0000C00000E9CFC498E7CFD0
:0400A6000C940000B6
:00000001FF
