:100000000C9441000C9400000C9400000C9400002F
:100010000C9400000C9400000C9400000C94000060
:100020000C9400000C9400000C9400000C94000050
:100030000C9400000C9400000C9400000C94000040
:100040000C9400000C9400000C9400000C94000030
:100050000C9400001027E80364000A00010000105F
:1000600000011000010080C001002D4E414E0049EA
:100070004E46000002006001660001006401680055
:100080000000F894EE27ECBBF1E0FBBFEBBFE5BF4F
:100090008DE0A2E0BB27ED938A95E9F780E094E03C
:1000A000A0E6ED930197E9F7E4E7F0E085919591FB
:1000B000009761F0A591B59105901590BF01F001F1
:1000C00005900D920197E1F7FB01F0CFEFE5EDBF51
:1000D000E4E0EEBFC0E6D1E00C946E00FFCFFFCFAE
:00000001FF
