:0C0000000C942A000C9400000C940000EA
:10000C000C9400000C9400000C9400000C94000064
:10001C000C9400000C9400000C9400000C94000054
:10002C000C9400000C9400000C9400000C94000044
:10003C000C9400000C9400000C9400000C94000034
:10004C000C9400000C940000F894EE27ECBBF1E04B
:10005C00FBBFEBBFE5BF8DE0A2E0BB27ED938A951C
:10006C00E9F780E094E0A0E6ED930197E9F7EFE57E
:10007C00EDBFE4E0EEBFC0E6D1E00C944500E7E054
:10008C00E4BBE8EFE5BBEFE0E1BB04D01E2F12BBF5
:10009C00FCCFFFCFA898A99AAA9AE3B3E63F19F42C
:1000AC00E1E008950EC0EE3E19F4E4E0089509C0B5
:1000BC00EE3D19F4E7E0089504C0EE3B11F4EAE0DC
:1000CC000895A89AA998AA9AE3B3E53F19F4E2E037
:1000DC0008950EC0ED3E19F4E5E0089509C0ED3D1C
:1000EC0019F4E8E0089504C0ED3B11F4E0E0089544
:1000FC00A89AA99AAA98E3B3E33F19F4E3E0089508
:10010C000EC0EB3E19F4E6E0089509C0EB3D19F47E
:10011C00E9E0089504C0EB3B11F4EBE00895BACF8D
:00000001FF
