:080000000C945D000C94B300A8
:100008000C9400000C9400000C94C6000C940000A2
:100018000C9400000C9400000C9400000C94000058
:100028000C9400000C9400000C9400000C94000048
:100038000C9400000C9400000C9400000C94000038
:100048000C9400000C9400000C9400001027E803A6
:1000580064000A0001000010000110000100000007
:1000680000005072657373207374617274210043C9
:10007800617273207061737365643D2575004D6905
:100088006E733D257520536563733D257500546F68
:1000980074616C20436172733D25750080C0040053
:1000A800040066000D0060016A0002006D01A400F2
:1000B8000000F894EE27ECBBF1E0FBBFEBBFE5BF17
:1000C8008DE0A2E0BB27ED938A95E9F780E094E004
:1000D800A0E6ED930197E9F7E6EAF0E085919591BE
:1000E800009761F0A591B59105901590BF01F001B9
:1000F80005900D920197E1F7FB01F0CFEFE5EDBF19
:10010800E4E0EEBFC0E6D1E00C948A00B898C09A4B
:100118008A98929AA0E1DED0E5B7E260E5BFEBB736
:10012800E064EBBF7894662029F4A8D0A0E6B1E09B
:10013800C2D013C0A3D0E7E7F0E06DD2E0E0EA93C5
:10014800A1E08AD0E6E8F0E0FA93EA93E42D6ED2D3
:10015800E52D6CD288E01FD22A96E5CFFFCFEA932F
:10016800EFB7EA93E1E06E2EE6E0E3BFE5E0E5BD38
:10017800E2B5E860E2BDE9B7E064E9BFE991EFBF45
:10018800E99118950A921A92FA926A937A938A9345
:100198009A93AA93BA93EA93FA93EFB7EA9353948C
:1001A800ECE3E51511F455244394ECE3E415B1F4BC
:1001B80044247394E0E0E3BFE5BD60D0E6E9F0E0F5
:1001C8002AD2A0E2BEE47AD2E72DF0E0FA93EA93CD
:1001D800E2B7AE2F11D0E0E0E2BF6624E991EFBFAD
:1001E800F991E991B991A991999189917991699137
:1001F800F99019900990189548D21A2F2C813D81B1
:10020800E199FECF3FBB2EBB1DBBE29AE19A44D2D7
:10021800269608951A931A2FEBB3EF70AE2FE12F9D
:10022800E07FEA2BEBBB8DE08A95F1F7DA9A8DE057
:100238008A95F1F7DA988DE08A95F1F774C0AA9358
:10024800A881E8DFE881E295E883A881E3DF85E813
:100258008A95F1F7219608951A930A931A2F0A811D
:10026800E12FF0E0E359FE4FE081E00FAE2FE7DF2A
:10027800902E812E1981088123960895A2E0DBD162
:10028800ACE0DDDFA1E0D7D1E0E08E2E9E2E089510
:100298001A931A2F1A3011F09B1438F0E0E0EA9301
:1002A8008394A82DD9DF1A30F1F19394D89AA12F0D
:1002B800C6DFD89838C0E9D19D01D9012F5F3F4FDB
:1002C800EC911E2FE03019F0A12FE2DFF6CFE4D138
:1002D800249608951A931A2FEAB3E06FEABBD29ACC
:1002E800D09AD19ADA98D898D998B12EE12FE058B7
:1002F800E0936F01E12FE054E0937001A4E1B0E0D6
:10030800DDD19DD19CD19BD1A0E284DF88EC90E027
:100318000197F1F7A8E293DFA4E091DFA5E88FDF6A
:10032800A6E08DDFABDF19910895BA93AA932697BB
:10033800AAD110E0AC85BD85E0E0F0E0ED93FC9338
:10034800EA89FB893196EA8BFB8B3197E4912E2F52
:10035800E03009F40BC1E12FE03031F4253211F41B
:1003680011E001C073D101C1E130A1F4253211F4CB
:100378006DD1FAC012E040E000E02D3211F401E046
:10038800F4C02B3211F44BE2F0C0203211F440E2F9
:10039800ECC002C0E23039F450E013E0203311F42D
:1003A8000068E3C003C0E33009F0DFC0203310F079
:1003B8002A3308F007C0AAE05A9F502DE22FE053D5
:1003C8005E0FD3C0E22FE33639F447D1E889F989C3
:1003D800A481AA9348D1C8C0E33729F43ED149D1B2
:1003E80001D11E2F07C0E03749F437D142D106D1D9
:1003F8001E2F086002600F7730E03AC0E43611F033
:10040800E93611F4046002C0E53731F4E4E5F0E0C0
:10041800EE83FF8315E00CC0E83511F4086003C0D3
:10042800E83709F0A1C0EEE5F0E0EE83FF8314E0C1
:1004380002FF15C012D1A889B9891496ED91FD91D2
:10044800EA87FB87AB85AA2322F42BD1EA87FB87AF
:100458004DE2403011F01F5F01C00B7F09C0FDD095
:10046800A889B9891496ED91FC911197EA87FB87C1
:1004780000FD10C0151770F407FF08C002FF04C084
:100488000B7F242F115001C020E301C020E2DED0F1
:100498005150F0CF312F01FF16C0303099F003FFD3
:1004A80006C0EE81FF812591EE83FF8305C0AE81F2
:1004B800BF812D91AE83BF83C9D0503009F0515010
:1004C8003150EBCF48C020E3EE81FF81EED0E887C2
:1004D800F987EE81FF813296EE83FF83E885F985FF
:1004E800AA85BB85AE17BF0750F02F5FA885B985D1
:1004F800EA85FB85EA1BFB0BEA87FB87EFCF2A33EC
:1005080028F003FF02C0295F01C0295D04FD19C05E
:10051800213320F4A885B985119709F409C0531728
:1005280010F000FF01C011C020E207FF0AC020E35D
:10053800006102FF06C00B7F4A9395D0503009F046
:10054800515084D0503009F051503150A885B985A8
:10055800129708F0B8CF00FF07C0503029F051506B
:10056800E0E2EA9380D0F9CF10E0EACEAC85BD8511
:10057800ED91FD918FD06496089587D08D013C81CF
:10058800A32F86DED801ED91FD913196FE93EE936F
:1005980083D025960895FF92F82E26971A930A93EA
:1005A800DE0114960024AF0DB01D8D01E0E0EC8350
:1005B800ED83EE83EF83DE0118960024AF0DB01DA6
:1005C800ED91FD91FA93EA931A930A93E1ECF2E024
:1005D800FA93EA93DE011896A8DE19810881289615
:1005E800FF900895BA93AA93A991B991EE27FF278E
:1005F8006D91662311F03196FBCF0895BA93AA93B3
:10060800AA27BB27E991F9910590002011F01196CE
:10061800FBCFFD010895FA93EA93E2B7FF27662717
:10062800772747D084E0B7DF26960895FF27662707
:1006380077273FD0089503DEA3E0B0E03FC0A0E3F2
:10064800E9DD88EC90E00197F1F708952A93AD85EC
:10065800BE85EF85F88909950895E889F989349761
:10066800E88BF98B0895AD85BE85EF85F8890995E6
:100678000895A889B9891496ED91FD91EE83FF83B9
:10068800AE81BF8108955A934A933A932A931A9355
:100698000A9308955D814C813B812A8119810881E3
:1006A8000895F195E195F04008950590F491E02DB5
:1006B80008957A936A93FA93EA930895109639F015
:1006C800A89580ED97E00197F1F71197C9F708957C
:00000001FF
