:040000000C942A0032
:100004000C945F000C9462000C9400000C940000AB
:100014000C9400000C9400000C9400000C9400005C
:100024000C9400000C9400000C9400000C9400004C
:100034000C9400000C9400000C9400000C9400003C
:100044000C9400000C9465000C9400000C940000C7
:10005400F894EE27ECBBF1E0FBBFEBBFE5BF8DE00E
:10006400A2E0BB27ED938A95E9F780E094E0A0E64F
:10007400ED930197E9F7EFE5EDBFE4E0EEBFC0E6ED
:10008400D1E00C944A00E3B7E966E3BFBB9A089554
:10009400FADF8A98929A8B98939ABA98C29A78942B
:1000A400EBB7E06EEBBFE5B7EA60E5BFE4B7E06449
:1000B400E4BFE0E0ECBFFFCFFFCFEA93EFEF05C072
:1000C400EA93E9ED02C0EA93EFE7ECBFE9911895F2
:00000001FF
