:0E0000000C942A000C9400000C9400000C9448
:10000E0000000C9400000C9400000C9400000C9462
:10001E0000000C9400000C9400000C9400000C9452
:10002E0000000C9400000C9400000C9400000C9442
:10003E0000000C9400000C9400000C9400000C9432
:10004E0000000C940000F894EE27ECBBF1E0FBBF2F
:10005E00EBBFE5BF8DE0A2E0BB27ED938A95E9F7F4
:10006E0080E094E0A0E6ED930197E9F7EFE5EDBFB0
:10007E00E4E0EEBFC0E6D1E00C944A00E3B7E966D7
:10008E00E3BFBB9A0895FADF10E01F3718F40AD0C9
:10009E001F5FFBCF1FE7123018F004D01150FBCFBB
:1000AE00F3CFFFCF1CBFA8E0B0E000C0109639F030
:1000BE00A89580ED97E00197F1F71197C9F708958C
:00000001FF
