:080000000C9453000C94000065
:100008000C9400000C9400000C9400000C94000068
:100018000C9400000C9400000C9400000C94000058
:100028000C9400000C9400000C9400000C94000048
:100038000C9400000C9400000C9400000C94000038
:100048000C9400000C9400000C9400001027E803A6
:1000580064000A0001000010000110000100237074
:10006800656F706C65203D2025750048656C6C6F68
:100078000020415652210053656374696F6E203326
:10008800210080C006006001730006006601790047
:100098000B006C017F00020077018A000000F894D1
:1000A800EE27ECBBF1E0FBBFEBBFE5BF8DE0A2E0C4
:1000B800BB27ED938A95E9F780E094E0A0E6ED93FD
:1000C8000197E9F7ECE8F0E085919591009761F0E8
:1000D800A591B59105901590BF01F00105900D927D
:1000E8000197E1F7FB01F0CFEFE5EDBFE4E0EEBFEC
:1000F800C0E6D1E00C94800010E0A0E17FD0E6E6F5
:10010800F0E0FA93EA93E12F1F5FFF27662777272E
:1001180058D284E0D4D1269612D2A0E6B1E05FD0BE
:10012800A6E6B1E05CD00BD2E0E0EA93A1E028D0EB
:10013800ACE6B1E054D003D2E2CFFFCF1A931A2F26
:10014800EBB3EF70AE2FE12FE07FEA2BEBBB8DE036
:100158008A95F1F7DA9A8DE08A95F1F7DA988DE0C9
:100168008A95F1F774C0AA93A881E8DFE881E2953F
:10017800E883A881E3DF85E88A95F1F72196089559
:100188001A930A931A2F0A81E12FF0E0E958FE4FDB
:10019800E081E00FAE2FE7DF502E412E1981088154
:1001A80023960895A2E0CFD1ACE0DDDFA1E0CBD16A
:1001B800E0E04E2E5E2E08951A931A2F1A3011F091
:1001C800571438F0E0E0EA934394A42DD9DF1A30AD
:1001D800F1F15394D89AA12FC6DFD89838C0DDD151
:1001E8009D01D9012F5F3F4FEC911E2FE03019F090
:1001F800A12FE2DFF6CFD8D1249608951A931A2FAB
:10020800EAB3E06FEABBD29AD09AD19ADA98D89832
:10021800D998712EE12FE058E0937901E12FE0544D
:10022800E0937A01A4E1B0E0D1D191D190D18FD1FE
:10023800A0E284DF88EC90E00197F1F7A8E293DF71
:10024800A4E091DFA5E88FDFA6E08DDFABDF199191
:100258000895BA93AA9326979ED110E0AC85BD85E0
:10026800E0E0F0E0ED93FC93EA89FB893196EA8BB4
:10027800FB8B3197E4912E2FE03009F40BC1E12F6D
:10028800E03031F4253211F411E001C067D101C129
:10029800E130A1F4253211F461D1FAC012E040E056
:1002A80000E02D3211F401E0F4C02B3211F44BE2DE
:1002B800F0C0203211F440E2ECC002C0E23039F460
:1002C80050E013E0203311F40068E3C003C0E330CA
:1002D80009F0DFC0203310F02A3308F007C0AAE085
:1002E8005A9F502DE22FE0535E0FD3C0E22FE33622
:1002F80039F43BD1E889F989A481AA933CD1C8C0D3
:10030800E33729F432D13DD101D11E2F07C0E037A0
:1003180049F42BD136D106D11E2F086002600F7721
:1003280030E03AC0E43611F0E93611F4046002C056
:10033800E53731F4E4E5F0E0EE83FF8315E00CC027
:10034800E83511F4086003C0E83709F0A1C0EEE50C
:10035800F0E0EE83FF8314E002FF15C006D1A88900
:10036800B9891496ED91FD91EA87FB87AB85AA239D
:1003780022F41FD1EA87FB874DE2403011F01F5F5E
:1003880001C00B7F09C0F1D0A889B9891496ED91F5
:10039800FC911197EA87FB8700FD10C0151770F4D0
:1003A80007FF08C002FF04C00B7F242F115001C0B3
:1003B80020E301C020E2D2D05150F0CF312F01FF0D
:1003C80016C0303099F003FF06C0EE81FF812591F9
:1003D800EE83FF8305C0AE81BF812D91AE83BF83BD
:1003E800BDD0503009F051503150EBCF48C020E318
:1003F800EE81FF81E2D0E887F987EE81FF813296AE
:10040800EE83FF83E885F985AA85BB85AE17BF070C
:1004180050F02F5FA885B985EA85FB85EA1BFB0BA1
:10042800EA87FB87EFCF2A3328F003FF02C0295F52
:1004380001C0295D04FD19C0213320F4A885B985C0
:10044800119709F409C0531710F000FF01C011C03B
:1004580020E207FF0AC020E3006102FF06C00B7F0D
:100468004A9389D0503009F0515078D0503009F073
:1004780051503150A885B985129708F0B8CF00FFC0
:1004880007C0503029F05150E0E2EA9374D0F9CF18
:1004980010E0EACEAC85BD85ED91FD9183D06496E0
:1004A80008957BD08D013C81A32F86DED801ED9184
:1004B800FD913196FE93EE9377D025960895FF929D
:1004C800F82E26971A930A93DE0114960024AF0D8E
:1004D800B01D8D01E0E0EC83ED83EE83EF83DE0158
:1004E80018960024AF0DB01DED91FD91FA93EA9393
:1004F8001A930A93E5E5F2E0FA93EA93DE01189677
:10050800A8DE198108812896FF900895BA93AA93C6
:10051800A991B991EE27FF276D91662311F03196C5
:10052800FBCF0895BA93AA93AA27BB27E991F9911B
:100538000590002011F01196FBCFFD010895A8EE5B
:10054800B3E044D02FCE0FDEA3E0B0E03FC0A0E37D
:10055800F5DD88EC90E00197F1F708952A93AD85D1
:10056800BE85EF85F88909950895E889F989349752
:10057800E88BF98B0895AD85BE85EF85F8890995D7
:100588000895A889B9891496ED91FD91EE83FF83AA
:10059800AE81BF8108955A934A933A932A931A9346
:1005A8000A9308955D814C813B812A8119810881D4
:1005B8000895F195E195F04008950590F491E02DA6
:1005C80008957A936A93FA93EA930895109639F006
:1005D800A89580ED97E00197F1F71197C9F708956D
:00000001FF
